:020000040800F2
:1000000048600020A1010008BB3C0008EB39000853
:10001000B93C0008DB080008156D0008000000006E
:10002000000000000000000000000000B1480008CF
:10003000890C0008000000002B3F00085D4A000802
:10004000BB010008BB010008BB010008BB010008A0
:10005000BB010008BB010008BB010008BB01000890
:10006000BB010008BB010008BB010008BB01000880
:10007000BB010008BB010008BB010008BB01000870
:10008000A90B0008BB010008BB010008BB01000868
:10009000BB010008BB010008BB010008BB01000850
:1000A000BB0100080D4B0008BB010008BB010008A4
:1000B000BB010008BB010008BB010008BB01000830
:1000C000BB010008BB010008BB010008BB01000820
:1000D000BB0100087D50000891500008A5500008A1
:1000E000BB010008BB010008BB010008BB01000800
:1000F000BB010008BB010008BB010008BB010008F0
:10010000BB0100083D410008BB010008BB0100081D
:10011000BB010008BB010008BB010008BB010008CF
:10012000BB010008BB010008B50B0008C10B0008AB
:10013000BB010008BB010008BB010008BB010008AF
:10014000BB010008BB010008BB010008BD3C000862
:10015000BB010008CD0B0008D90B0008BB0100084B
:10016000BB010008BB010008BB010008BB0100087F
:10017000BB010008BB010008BB0100080000000033
:10018000BB010008BB010008DFF810D000F068FBDD
:10019000004800474D7C0008AFF300804860002015
:1001A0000648804706480047FEE7FEE7FEE7FEE711
:1001B000FEE7FEE7FEE7FEE7FEE7FEE7FD4A000892
:1001C000890100082DE9F05F0546002092469B4614
:1001D00088460646814640241BE02846414647465D
:1001E000224600F06EFA53465A46C01A914110D387
:1001F00011461846224600F055FA2D1A67EB010801
:100200004F4622460120002100F04CFA17EB00096E
:100210004E41201EA4F10104DFDC484631462A4647
:100220004346BDE8F09F40EA01039B0703D009E085
:1002300008C9121F08C0042AFAD203E011F8013BD2
:1002400000F8013B521EF9D27047D2B201E000F82B
:10025000012B491EFBD270470022F6E710B513466A
:100260000A4604461946FFF7F0FF204610BD2DE967
:10027000FE4F804681EA0300C00F0C46009021F03B
:10028000004123F00045B8EB0200A94105D24046E9
:10029000214690461C460B46024623F00040104380
:1002A00047D0270DC7F30A00C3F30A510290401A42
:1002B000019040286BDAC3F3130040F4801B0098D0
:1002C000924620B10023D2EB030A63EB0B0B01989B
:1002D0005946C0F14002504600F0E4F906460D468A
:1002E00050465946019A00F0FCF910EB08006141B4
:1002F000002487EA115284EAE7731A4340D0009A37
:1003000062B3019A012A4FEA075215DC001B61EB28
:1003100002014FF0004202EA0752CDE90042001C00
:1003200041F5801132462B4600F033FA03B0BDE8A8
:10033000F08F40462146F9E7001B61EB0201001CEB
:1003400041F5801300185B412018A2F5001747EB18
:10035000030140EAD570B6196D4111E06D084FEA0E
:10036000360645EAC0754FEA0752001B61EB0201F1
:10037000001C41F5801149084FEA30000019514135
:1003800032462B4603B0BDE8F04F00F0F3B90098B9
:10039000012240000023D0EB020263EBE0730098DF
:1003A00021464FEAE074B8EB000061EB0401E9E795
:1003B00083F000435BE781F0004158E72DE9FE4FF1
:1003C00081EA030404F0004421F0004100944FF05E
:1003D000000B23F0004350EA01045ED052EA03040C
:1003E0005BD0C3F30A54C1F30A552C44A4F2F3348E
:1003F0000194A0FB0254C1F3130141F48011C3F333
:10040000130343F4801301FB024400FB034E840AF0
:10041000970A44EA815447EA8357A4FB0768029588
:100420008D0A05FB07854FEA932C04FB0C54270526
:10043000029D4FEA065847EA1637B5EB08056EEB02
:10044000070C870E920E47EA811742EA8312A7FB38
:100450000201B6EB0B0164EB00042B0D43EA0C33F5
:100460005E1844EB1C50DA465146E7FB0201C5F327
:1004700013044FEA0B3343EA14534FEA0432019C4E
:1004800043EA0603A4F10C040294009CCDE900B4F5
:1004900000F07FF903B0BDE8F08F00200146F9E7D6
:1004A0002DE9F04D81EA030404F0004B21F00045F2
:1004B00014464FF0000A23F0004150EA050220D014
:1004C00054EA01021DD0C5F30A570246C5F31303CF
:1004D000C1F31300C1F30A5640F4801543F48013AE
:1004E000A7EB0608101BD64608F2FD3873EB050093
:1004F00002D308F1010801E092185B41B8F1000F46
:1005000003DA00200146BDE8F08D00204FF4801191
:10051000064684460EE0171B73EB050705D3121B36
:1005200063EB050306434CEA010C49084FEA30002F
:1005300092185B4150EA0107EDD152EA030012D054
:1005400082EA040083EA0501084305D0101BAB4191
:1005500006D20122002306E000224FF0004302E011
:100560006FF0010253101AEB06004CEB085110EB30
:100570000A0041EB0B01BDE8F04D00F0FBB80EB5F1
:10058000C10F80EAE0700844CA07002140F23343FB
:100590008DE80E000A460B4600F0FBF803B000BDE4
:1005A0000EB540F2334102910021CDE900110A4617
:1005B0000B4600F0EEF803B000BD00F0004230F052
:1005C00000400AD0C10D01F56071C0F3160042EA87
:1005D0000151C2084007114370470020014670478F
:1005E00030B5041E71F1000404DB4FF000444042BA
:1005F00064EB0101141E73F1000405DB1C464FF08F
:100600000043524263EB04038B4208BF824230BD79
:1006100030B5041E71F1000404DB4FF00044404289
:1006200064EB0101141E73F1000405DB1C464FF05E
:100630000043524263EB0403994208BF904230BD2D
:1006400001F0004330B421F0004150EA010206D02D
:100650000A0DA2F56072C1F31301002A02DC30BC5E
:1006600000207047440F44EAC104C100E01830BCC8
:1006700000EBC25000F047B830B50B4601460020F1
:100680002022012409E021FA02F59D4205D303FA54
:1006900002F5491B04FA02F52844151EA2F10102D5
:1006A000F1DC30BD202A04DB203A00FA02F1002000
:1006B00070479140C2F1200320FA03F319439040A0
:1006C0007047202A04DB203A21FA02F0002170470B
:1006D00021FA02F3D040C2F12002914008431946AA
:1006E0007047202A06DBCB17203A41FA02F043EA92
:1006F000E07306E041FA02F3D040C2F120029140DB
:100700000843194670470029A8BF7047401C49009C
:1007100008BF20F00100704710B4B0FA80FC00FA66
:100720000CF050EA010404BF10BC704749B1CCF191
:10073000200421FA04F411FA0CF118BF012121431D
:100740000843A3EB0C01CB1D4FEA00614FEA1020D8
:1007500042BF002010BC704700EBC350104400297A
:10076000A4BF10BC7047401C490008BF20F0010026
:1007700010BC704710B5141E73F1000408DA401C59
:1007800041F1000192185B411A4301D120F00100B0
:1007900010BD2DE9F04D92469B4611B1B1FA81F2A0
:1007A00002E0B0FA80F220329046FFF77BFF044669
:1007B0000F4640EA0A0041EA0B0153465A460843F5
:1007C00013D0114653EA010019D0C8F14002504637
:1007D000FFF777FF05460E46504659464246FFF75B
:1007E00061FF084305D0012004E020463946BDE8FA
:1007F000F08D0020054346EAE0762C4337430A9803
:100800006305E40AA0EB08000022FD0A44EA47540D
:100810000A3002D500200146E9E7010510196941B7
:10082000DDE9084500196941BDE8F04DA2E7C1F3D3
:100830000A52C1F3130140F2FF3341F480119A428E
:1008400002DA00200146704740F233439A42A2F296
:10085000334202DC5242FFF734BFFFF723BF0000F0
:10086000064C074D06E0E06840F0010394E80700FD
:1008700098471034AC42F6D3FFF78AFC38CD0C0809
:1008800058CD0C0870B58C1810F8015B15F00703F3
:1008900001D110F8013B2A1106D110F8012B03E019
:1008A00010F8016B01F8016B5B1EF9D12B0705D421
:1008B0000023521E0DD401F8013BFAE710F8013B6A
:1008C000CB1A921C03E013F8015B01F8015B521E86
:1008D000F9D5A142D8D3002070BDFEE700207047B3
:1008E0000020704710B500220449054804F0C0FDFF
:1008F0000449034804F0AFFD002010BDE41A0020B5
:10090000C80D0020E412002010B50A46096840F224
:10091000FF73491E99420DD200210B4B02E0445C4B
:100920005C54491C14688C42F9D8084912884A80E2
:1009300001220A700146064804F08DFD044804F0C7
:1009400063FD002010BD0000E42200207A0000209A
:10095000C80D002001490020487070477A0000202F
:100960002DE9F041264F4FF48071384600F02CFEFF
:100970000126244C002598B12570E5704FF4805174
:10098000384600F021FED8B1657025714FF48061C2
:10099000384600F019FE18B3A5706571BDE8F08106
:1009A0002078082802D2401C2070E7E7E078002871
:1009B000E4D1E67014A006F0D9F906F0ADF9DDE750
:1009C0006078082802D2401C6070DFE72079002898
:1009D000DCD1267113A006F0C9F904F01DF8D5E7A3
:1009E000A078082802D2401CA070D7E760790028C0
:1009F000D4D16671BDE8F04111A006F0B7B900008E
:100A0000000C0240480100204B65795F53656C651E
:100A1000637420627574746F6E2070726573736591
:100A2000640D0A004B65795F5374617274206275BE
:100A300074746F6E20707265737365640D0A0000C4
:100A40004B65795F456E6420627574746F6E2070BB
:100A50007265737365640D0A0000000010B5054CE3
:100A60006078012805D16188034803F057F9002018
:100A7000607010BD00000020E803002010B5054C98
:100A80002078012805D16188034803F047F9002048
:100A9000207010BD7A000020E422002070B5244CA4
:100AA0002448254D2DED028B617890ED000B69B146
:100AB00094ED041B51EC100B53EC112BFFF778FC59
:100AC000FFF7BEFD2860BDEC028B70BD53EC102B10
:100AD00094ED0C0B51EC100BFFF7C9FB41EC180B1C
:100AE00084ED0C8BE068401CE06032281AD3FFF7DD
:100AF00057FD41EC100B51EC180B53EC102BFFF78A
:100B0000CFFC41EC100B012084ED040B60709FEDD5
:100B10000B1B002084ED0C1BE06053EC102B09A094
:100B200006F024F99FED0C0A85ED000ACBE70000E2
:100B30008001002040010020100200200000000081
:100B4000000000005A65726F4D61726B56616C75E2
:100B5000653D25660A0000000000000070B5104BDE
:100B6000104A002101EB810503EB0514002002EB84
:100B7000051500BF04EBC00696ED000B05EBC006A3
:100B8000401C86ED000B0A28F4DB491C1429E9DB24
:100B900093F8400682F84006002083F8400670BDB6
:100BA00010360020583C0020014800F091BA0000A7
:100BB000680D0020014800F08BBA0000A80C00204E
:100BC000014800F085BA0000E80B0020014800F061
:100BD0007FBA0000480C0020014800F079BA0000FC
:100BE000080D002001681823CAB2103AB2FBF3F2D4
:100BF000054B6FF30901032A9B5CC36500D9091DEE
:100C000081650846704700005083000810B5014612
:100C100000208B698A6A4FF0C07453B1B3F5005F4E
:100C200015D072B1012A0CD0022A0AD0032A09D1A8
:100C300004E01AB1012A06D0022A03D1C96AC90107
:100C400000D5012010BDC96AA142FAD010BD002A0A
:100C5000F7D0012AF2D0022AF3D0032AF3D010BD34
:100C600030B50468256825F4802525600468636034
:100C70008368402B036803D099600068C26030BD70
:100C80009A600068C16030BD704700002DE9F041F6
:100C900007252DED028B0446344F9FED358B002642
:100CA0006019615DC27841EA02618278407812047D
:100CB00042EA00200843FFF762FC53EC182BFFF7D1
:100CC0007DFB07EBC6022D1D761CC2E90001ADB20B
:100CD000022EE5DD254F1525002618376019615DC8
:100CE000C27841EA026182784078120442EA002028
:100CF0000843FFF744FC53EC182BFFF75FFB07EBAF
:100D0000C6022D1D761CC2E90001ADB2022EE5DD42
:100D1000164F2325002648376019615DC27841EAE5
:100D2000026182784078120442EA00200843FFF70B
:100D300026FC53EC182BFFF741FB07EBC6022D1DD9
:100D4000761CC2E90001ADB2042EE5DB074A074874
:100D50004832A2F1300103F0E9F807480169491C63
:100D60000161BDEC028BBDE8F0810000A0420020D3
:100D70008DEDB5A0F7C6B03E480100204FF0E0224F
:100D800091699369CB1A8342FBD370472DE9FE43E7
:100D9000DFED540AB5EEC00AF1EE10FA04D810EEF9
:100DA000100A10F1814F09D910EE100A4E498842FD
:100DB00006DAB5EEC00AF1EE10FA01DDB0EE600A17
:100DC000B5EEC00AF1EE10FA02DBF6EE000A01E021
:100DD000FEEE000A9FED451A454E012040EE010A45
:100DE000BDEEE00A86ED050AB071424802F070FBE4
:100DF000202875D100F0F2FB0546F069291AD6E9E2
:100E00000540201A00D54042B279002A68D0322924
:100E100001D2322864DBDFF8E0802420052188F845
:100E20000000302088F8010088F80200312088F89E
:100E300003002C20B14688F80400002C03DA00BF20
:100E4000C4F1000000E0204605DA4FF02D0188F8DB
:100E500005104FF006014FF0640290FBF2F690FB94
:100E6000F2F302FB16074FF000024FF00A006E4645
:100E7000B3FBF0FC00FB1C3CB3FBF0F30CF1300CBB
:100E800006F802C002F101020BB10A2AF0DB521E81
:100E900004D4B35C08F80130491CF8E72E2208F8A6
:100EA0000120B7FBF0F2491C303208F80120B7FBF3
:100EB000F0F200FB1270491C303008F80100491CA8
:100EC000232008F80100491C8AB20B49094802F0A6
:100ED0006CFD002804D1C9E90645002189F80610F7
:100EE000BDE8FE83000000009A99193F0000C84247
:100EF00048010020A4030020084300202DE9F04110
:100F00002B4C2A4E00272DED028B4FF0010894ED5B
:100F1000040B9FED248B53EC102B96ED000B51EC42
:100F2000100BFFF745FA41EC100B06F047F89FED68
:100F3000211B51EC100B53EC112BFFF751FB26D862
:100F4000A5787DB196ED000B53EC102B94ED0A0BB8
:100F500051EC100BFFF78BF9C4E90A01A068401CA3
:100F6000A06000E0A068C82814DBADB19FED130BB2
:100F700053EC102B94ED0A0B51EC100BFFF790FA89
:100F8000A760C4E9040100BF84ED0A8B04E0A770E8
:100F9000A760F9E7002D01D184F80280BDEC028B37
:100FA000BDE8F081000000000000000040010020CA
:100FB00080010020000000000000F03F0000000061
:100FC0000000694072B6FEE7074810B5074990ED8A
:100FD000080B81ED000B407808B1FFF78FFFBDE8EB
:100FE0001040FFF75BBD00008001002040010020A1
:100FF00030B5084A0023D371137207E0C45CD57979
:101000005B1C2C44D471157A2C4414728B42F5DB92
:1010100030BD0000480100202DE9F0410446876DF5
:1010200000F0DCFA064694F835000025022806D0C8
:101030008020606584F834500120BDE8F08120688C
:10104000016821F0160101602068416921F08001EA
:101050004161206C08B9A06C20B12068016821F0C2
:10106000080101602068016821F0010101600CE0C5
:1010700000F0B4FA801B052807D920206065032002
:1010800084F8350084F83450D7E720680068C0073A
:10109000EED194F85C103F208840B860012084F8BD
:1010A000350084F834500020C7E790F83510022945
:1010B00003D08021416501207047052180F835105B
:1010C0000068016821F00101016000207047000004
:1010D0002DE9F84304464FF00009CDF8009063482D
:1010E0004FF41651A56D0068B0FBF1F72E6894F827
:1010F0005C10082000FA01F131420FD021680A6823
:1011000052070BD50A6822F004020A6094F85C10BA
:101110008840A860606D40F00100606594F85C1044
:101120004FF0010808FA01F0304208D021684969FF
:10113000090604D5A860606D40F00200606594F86F
:101140005C1004208840304208D021680968890773
:1011500004D5A860606D40F00400606594F85C10F0
:1011600010208840304218D021680968090714D53A
:10117000A86020680168490304D50068000308D509
:10118000A16C07E00168C90503D4016821F00801DA
:101190000160216C09B12046884794F85C1020203A
:1011A0008840304231D021680968C9062DD5A86031
:1011B00094F8350005282068016806D0490347D512
:1011C000006800031DD4616C1CE021F01601016071
:1011D0002068416921F080014161206C08B9A06C50
:1011E00020B12068016821F00801016094F85C10CA
:1011F0003F208840A86084F8358084F83490216DC1
:101200001FE0E16B09B120468847606D00282BD0B4
:10121000606DC00714D0052084F83500206801688F
:1012200021F0010101600098401C0090B84203D8F1
:1012300020680068C007F6D184F8358084F83490BF
:10124000E16C002910D001B02046BDE8F04308470A
:101250000168C905D5D4016821F01001016084F846
:10126000358084F83490CCE7BDE8F883A4000020F2
:101270002DE9F041044600F0B1F906465CB10220C8
:1012800084F83500002584F834502068016821F086
:10129000010101600DE00120BDE8F08100F09EF940
:1012A000801B052805D920206065032084F83500BF
:1012B000F2E720680068C007F0D122681168204872
:1012C0000140D4E901031843D4E9033633431843FA
:1012D00063691843A3691843E3691843236A1843F1
:1012E0000843616A042903D1D4E90B131943084365
:1012F000106020684069666A20F0070130460E439E
:10130000012704280CD1A06A0643E06A40B12046B8
:10131000FFF77CFC20B14020606584F83570BAE7A7
:10132000206846612046FFF75DFC94F85C203F2171
:1013300091408160656584F835700020ACE700005D
:101340003F8010F02DE9F0410446866D90F834009E
:10135000002501280DD0012084F8340094F8357060
:101360000020012F07D084F8340002252846BDE86C
:10137000F0810220FBE7022784F835706065204683
:10138000FFF76EFC94F85C103F208840B060206846
:10139000016841F016010160206C20B120680168ED
:1013A00041F0080101602068016841F0010101601D
:1013B000DCE7000070B5044600F010F90546601C3B
:1013C00002D004480078044400F008F9401BA04211
:1013D000FAD370BD980000202DE9F84FDFF8BCA1CA
:1013E0000022012503264FF00F090AF1040BAAF190
:1013F000040E00BF0B6805FA02F42340A34270D12B
:101400000F7907F00307012F01D0022F16D187684B
:101410004FEA420806FA08FC27EA0C07D1F80CC08C
:101420000CFA08FC4CEA070CC0F808C04768A74350
:101430000C79C4F3001494403C4344600C79E443B9
:10144000A4070AD0C4684FEA420C06FA0CF7BC4362
:101450008F6807FA0CF72743C7600C7904F0030480
:10146000022C12D1D40800EB840CDCF82040570782
:10147000FF0E09FA07F824EA0804D1F8108008FAE8
:1014800007F848EA0408CCF8208004684FEA420CC8
:1014900006FA0CF7BC430F7907F0030707FA0CF7BD
:1014A000274307604C6814F4403F70D03C4C2768D9
:1014B00047F480472760246822F0030704F480443F
:1014C0000094384C07EB040CDCF8084897074FEA07
:1014D000177809FA08F7BC43334FB84202D1002706
:1014E00024E054E0314FB84201D101271EE0304FD3
:1014F000B84201D1022719E02E4FB84201D103278B
:1015000014E02D4FB84201D104270FE02B4FB84211
:1015100001D105270AE02A4FB84201D1062705E08C
:10152000284FB84201D1072700E0082707FA08F73B
:101530002743CCF80878DAF800405746D1F804C0C1
:101540009C435FEACC2C00D51C433C60DBF8004098
:101550005F46D1F804C09C435FEA8C2C00D51C4345
:101560003C60DEF800407746D1F804C09C435FEA57
:101570008C3C00D51C433C60084F083F3C68D1F8C8
:1015800004C09C435FEACC3C00D51C433C60521C29
:10159000102AFFF42FAFBDE8F88F0000083C01408F
:1015A0004438024000300140000002400004024084
:1015B00000080240000C02400010024000140240EB
:1015C00000180240001C02400069084000D00120C1
:1015D00070470AB1816170470904FBE701488068E0
:1015E000704700009800002002488168027811448A
:1015F00081607047980000200B4810B5016841F4E5
:1016000000710160016841F480610160016841F48A
:1016100080710160032000F06FF80F2000F006F8E1
:1016200000F024F8002010BD003C024070B50D4DC4
:1016300004464FF47A712878B1FBF0F00A49096842
:10164000B1FBF0F001F0FAFC48B9102C07D20022EF
:101650002146501E00F030F800206C6070BD012063
:1016600070BD000098000020A40000200A4808B5C2
:10167000016841F480410160006800F480400090FE
:101680000548001F016841F080510160006800F0CA
:101690008050009008BD000044380240002809DB5B
:1016A00000F01F02012191404009800000F1E0207C
:1016B000C0F8001170470000F0B40E4B1B680C46D8
:1016C000C3F30223C3F10705042D00D90425191D16
:1016D000072901D2002300E0DB1E012606FA05F1EE
:1016E000491E214099409E40761E16403143F0BC71
:1016F00005F05FBB0CED00E0064900F0070208684A
:101700004FF6FF03184040EA0220034A10430860E6
:10171000704700000CED00E00000FA05704700681B
:10172000416200207047F0B50368586A39B19C6A7D
:101730004FF4827600EB144400204D1E0AE040EA8C
:10174000024098620FE006EB8007DF59401C04EB73
:101750001744C0B2A842F6D344EA02404FF4807264
:1017600002EB810158500020F0BDD0F8080504F0CC
:101770007FB901EBC10200EB8202D0F80805D26C00
:1017800004F0D4B801EBC10200EB8202D0F80805E6
:10179000D2F88C2204F025B9D0F8080504F06AB913
:1017A0000A0601F00F0101EBC10100EB810101D537
:1017B0003C3101E001F51F71006805F09FB870B57C
:1017C00004460B0601F00F0000EBC00104EB8101A1
:1017D0004FF001024FF0000503D581F83D203C3168
:1017E00003E081F87D5201F51F71087094F8BC0484
:1017F000012808D084F8BC24206804F039FD84F85E
:10180000BC54002070BD022070BD70B5044601F0CC
:101810000F006268904201D9012070BD0B0601F0F3
:101820000F0101EBC10104EB81014FF001024FF008
:10183000000503D581F83D203C3103E081F87D525D
:1018400001F51F718D70087094F8BC04012808D050
:1018500084F8BC24206804F007FF84F8BC540020FE
:1018600070BD022070BD01F00F0101EBC10100EB62
:101870008100D0F89C0270472DE9F04104460F0624
:1018800001F00F0000EBC00104EB81014FF00106F5
:101890004FF0000503D581F83D603C3103E081F84D
:1018A0007D5201F51F710870CA600B714A7802B150
:1018B0000881022B00D14D7194F8BC04012809D095
:1018C00084F8BC64206804F02BFC284684F8BC54DF
:1018D000BDE8F0810220FBE770B50C4601F00F0572
:1018E00005EBC50100EB8101C1F89432C1F88C22EF
:1018F0000023C1F89C3281F87D3281F87C52036963
:1019000001F51F71012B00D14A612207027C00689A
:1019100003D004F001FF002070BD04F0EBFDFAE7F6
:1019200070B504460D4601F00F006168884201D988
:10193000012070BD29064FF000064FF0010207D5C7
:1019400000EBC00104EB810181F83D203C3107E050
:1019500005EBC50104EB810181F87D6201F51F7182
:101960008A70087094F8BC04012807D084F8BC245D
:10197000206804F0A5FE280702D007E0022070BD11
:10198000217C04F2C442206804F042FE84F8BC6466
:10199000002070BD70B50C4601F00F0505EBC501C8
:1019A00000EB81014B65CA640023CB65012381F8FC
:1019B0003D3001F83C5F0369012B00D14A612207E9
:1019C000027C006803D004F0A7FE002070BD04F084
:1019D00091FDFAE72DE9FC5F05680446284605F00D
:1019E0002EF800287DD1206805F094F8002878D0E2
:1019F000D5F80808C0F30D20C4F8FC04206805F0F1
:101A000089F8800704D52068416901F0020141612D
:101A1000206805F07FF8C10604F2C440009034D578
:101A20002068816921F0100181612F6A07F00F00A1
:101A300000EBC00004EB8006C7F3434006F51F76B9
:101A4000022802D0062811D01AE047F6F0700742AB
:101A500016D0C7F30A1217462846316905F05EF81A
:101A6000306938443061306A384408E0082228463A
:101A7000009905F053F8306AC7F30A110844306240
:101A80002068816941F010018161206805F042F809
:101A900000034FF0080B4FF0000A4FF001097CD50E
:101AA0000026206805F015F8074674E0F80770D0A6
:101AB000F1B2206805F026F88046C00707D005EB94
:101AC0004611C1F8089B3146204602F077F95FEADB
:101AD000087024D505EB4611C1F808BB2068016CDD
:101AE00000E025E200EB46100191D0F8082BFC4BFA
:101AF000994205D9110403D54FF40041C0F8081BE1
:101B0000204600F005FBF6490198884207D9206974
:101B1000012804D120680121009A04F079FD5FEAD0
:101B2000C86004D505EB46111020C1F8080B5FEA28
:101B300088701DD56869000605D5D5F8040840F4FD
:101B40008061C5F8041806EBC60004EB800090F82D
:101B50007F1200F51F70012905D180F803A0F1B2B2
:101B6000204600F0EBF905EB46110220C1F8080B06
:101B70005FEA886004D505EB46102021C0F8081BF9
:101B80005FEA884005D505EB46104FF40051C0F8D8
:101B9000081B7F08761C002F88D1206804F0BAFF4C
:101BA00040036FD5206804F08DFF0746002667E0EC
:101BB000F80763D0F1B2206804F092FF8046C007B6
:101BC00023D006F00F0209FA02F0D5F83428824338
:101BD000C5F8342805EB4610C0F80899206901289B
:101BE0000FD106EBC60004EB8000D0E912211144AE
:101BF000C16436B9606D20B920680121009A04F0F3
:101C000007FDF1B22046FFF7B4FD5FEA087003D587
:101C100005EB4611C1F808B95FEAC86004D505EBC9
:101C200046111020C1F808095FEA486004D505EBA9
:101C300046104021C0F808195FEA887017D5314670
:101C4000284604F0CFFE06EBC60004EB800090F8B7
:101C50003F103C30012905D180F803A0F1B22046A5
:101C600000F068F905EB46110220C1F808095FEAA7
:101C7000086003D53146204602F006F97F08761C3D
:101C8000002F95D1206804F045FF002811DAD5F81F
:101C9000040820F00101C5F8041894F8F4040128A0
:101CA0002BD0204600F018FA2068416901F000416D
:101CB0004161206804F02EFF00050BD5D5F8080817
:101CC000C00702D0204600F04BFA2068416901F4B9
:101CD00000614161206804F01DFFC00466D5D5F89D
:101CE000040820F00100C5F804081021206804F061
:101CF00079FE00214FF67F321FE084F8F4A4002122
:101D00002046FFF70BFDCFE705EB4110C0F808298F
:101D1000D0F8003923F40013C0F80039C0F8082BBC
:101D2000D0F8003B23F40013C0F8003BD0F8003B90
:101D300043F00063C0F8003B491C60688842E3D868
:101D4000D5F81C0840F00111C5F81C18206B0028BC
:101D500028460DD0D0F8840840F00B01C5F884184F
:101D6000D5F8440840F00B012846C5F844180DE0AA
:101D7000D0F8140842F22B010843C5F81408D5F82E
:101D8000100840F00B012846C5F81018D0F80008DC
:101D900020F4FE61C5F80018217C2068009A04F048
:101DA00037FC2068416901F480514161206804F0EA
:101DB000B1FE800415D5206804F0F2F9206804F023
:101DC00031FEE06000F01CFB0146227B206804F03D
:101DD00003FF204600F06AF92068416901F40051D0
:101DE0004161206804F096FE000707D5204600F008
:101DF00077F92068416901F008014161206804F029
:101E000089FE000616D5A86920F08000A861012689
:101E10000DE000BF06EBC60004EB800090F87F02E7
:101E2000012803D1F1B22046FFF7BAFC761C6068A6
:101E3000B042EFD8206804F06DFEC00221D5012623
:101E40004F4616E005EB4610D0F8001906EBC60029
:101E500004EB800090F84020012A09D1002907DA1C
:101E600080F83F70F0B240F080012046FFF798FC08
:101E7000761C6068B042E5D82068416901F48011A1
:101E80004161206804F046FE800234D501204B46B3
:101E900029E000BF05EB4011D1F8001B00EBC002A8
:101EA00004EB820696F88022012A1BD1002919DA58
:101EB00094F8FC2401F4803102F00102914211D126
:101EC00086F87F32A96941F08002AA616969090632
:101ED00008D4D5F8040840F40070C5F8040805E0FB
:101EE0000A30544F401C61688142D3D82068416950
:101EF00001F400114161206804F00CFE400007D598
:101F00002046FFF732FC2068416901F080414161C1
:101F1000206804F0FFFD40070AD52068456868077F
:101F200002D52046FFF738FC20684168294341600C
:101F3000BDE8FC9FD0F8080503F0F0BDD0F8080517
:101F400003F000BE2DE9F0418AB0040005D094F8FA
:101F5000BD042668002520B108E001200AB0BDE8D4
:101F6000F08184F8BC54204600F05EF8032084F829
:101F7000BD04F06BC00500D42561206804F0B4FAFC
:101F800004F11001282288466846FEF74CF994E8CF
:101F90000F0004F013F90226C8BB0021206804F0EA
:101FA000DCFD002001270EE000EBC00104EB810105
:101FB00081F83D7001F83C0F08810D71CD600D6115
:101FC000401CC0B28D6161688142EDD8002011E0F3
:101FD00000EBC00104EB810181F87D5281F87C02A5
:101FE00081F88052C1F88852C1F88C52401CC0B2AE
:101FF000C1F8945261688142EAD828224146684675
:10200000FEF711F994E80F0004F0B4F910B184F868
:10201000BD64A2E784F8385084F8BD74206804F0E9
:102020009BF900209AE7000010B586B00446142101
:102030006846FEF711F92068B0F1A04F2FD119487A
:102040000021026842F001020260006800F0010015
:1020500005904FF4C05000900220CDE9010103200B
:1020600003900A20049069460F48FFF7B5F90D4820
:10207000001D016841F0800101600A4814300168C8
:1020800041F4804101600068002200F48040059026
:1020900011464320FFF710FB4320FFF7FFFA06B07D
:1020A00010BD0000303802400000024070B5044608
:1020B000C068012570B1022801D0FEF783FF2946D0
:1020C000D4F8080503F0ACFDD4F80805BDE870406D
:1020D00003F061BD0025F2E7D0F8080503F089BDE3
:1020E000D0F8080503F08FBD10B5044690F8BC0485
:1020F00001280BD0012084F8BC0484F83810206833
:1021000004F059FD002084F8BC0410BD022010BD6D
:10211000D0F8082500F2C441104603F08DBD10B57B
:102120000446006894F8BC14012906D0012184F803
:10213000BC14A16A012902D008E0022010BDA169E7
:10214000012903D0816B41F480318163206804F060
:1021500024FC206804F0F2F8002084F8BC0410BDD0
:1021600010B50446D0F8080503F0A8FD2068D0F8A3
:10217000001E41F00101C0F8001E206A002804D0B2
:102180000248016841F00601016010BD10ED00E059
:102190002DE9F843054600684FF00109C1074FF0EB
:1021A000000601D1400727D5DFF80C81C8F8686028
:1021B000FFF714FA0746414C05E000BFFFF70EFA9F
:1021C000C01B022857D820680001F7D46868810135
:1021D000287A41EA0070394984310860C8F868906B
:1021E000FFF7FCF9074604E0FFF7F8F9C01B0228E7
:1021F00041D820680001F7D52878800752D52F48AC
:102200004030016841F08051016000682C4C00F0C2
:1022100080500090206840F480702060FFF7DEF965
:10222000074604E0FFF7DAF9C01B022823D820682C
:10223000C005F7D5214C7034206810F4407020D0D0
:10224000A98901F4407181421BD020681D4920F406
:102250004070C1F800900E6020602068C00710D068
:10226000FFF7BCF9064641F2883707E0FFF7B6F9F9
:10227000801BB84202D90320BDE8F883206880079C
:10228000F4D5E9680D48C1F301220830032A0BD0C8
:10229000016821F4F81101602068A989C1F30B01DC
:1022A000084320600020E7E70268074B22F4F81299
:1022B00019400A430260EFE700004742003802403D
:1022C00000700040400E4742FFFCFF0F2DE9F04731
:1022D0000E46050065D0DFF81481D8F80000F7B28B
:1022E00000F00700B04207D288F80070D8F800006C
:1022F00000F00700B04254D128683D4C810712D548
:10230000400703D5206840F4E0502060287800079B
:1023100003D5206840F4604020602068A96820F060
:10232000F000084320602878C0072DD03049686845
:102330000839012812D0022813D0032811D00968C7
:10234000890700292DDA216821F00301014321606A
:10235000FFF744F9814641F2883A0EE009688903A3
:10236000EFE709688901ECE7FFF738F9A0EB09010D
:10237000514502D90320BDE8F0872068696800F064
:102380000C00B0EB810FEFD1D8F80010404601F0FF
:102390000701B14207D90770006800F00700B0429A
:1023A00001D00120E7E72878400705D52068E968D3
:1023B00020F4E050084320602878000706D5206804
:1023C000296920F4604040EAC100206000F03EF836
:1023D0002168084AC1F30311515CC84006490860EE
:1023E00006480068FFF722F90020C4E7003C0240DD
:1023F0000838024058830008A40000209C000020F8
:102400000148006870470000A40000200448054906
:1024100000680968044AC1F38221515CC8407047D2
:10242000A4000020083802406883000804480549D9
:1024300000680968044AC1F34231515CC8407047E2
:10244000A40000200838024068830008154810B531
:10245000006810F00C02144813D04110042A0FD069
:10246000082A0ED10F4C241F2268236802F03F0275
:102470005B0207D52068C0F38810A0FB010106E0CD
:10248000084610BD2168C1F38811A1FB000100239B
:10249000FDF798FE2168C1F30141491C4900B0FBDA
:1024A000F1F010BD083802400024F4002DE9F84F87
:1024B00004006ED02078DFF84C93C007A9F1040522
:1024C0004AD009F104000168C1F38101012908D053
:1024D0000068C0F3810002280AD1D9F80000400248
:1024E00006D52868800337D560680028E1D033E03E
:1024F0006068B0F5803F10D0B0F5A02F286810D0EC
:1025000020F480302860286820F4802028606068EB
:10251000A8B1FFF763F806460DE0286840F4803064
:10252000F4E740F480202860F7E700BFFFF756F893
:10253000801B642873D828688003F7D50CE0FFF768
:102540004DF8064605E000BFFFF748F8801B6428F9
:10255000F0D828688003F7D42078DFF8AC828007B1
:102560004FF0000A3ED5A748001D016811F00C0F7E
:1025700008D00068C0F3810002280BD1D9F8000010
:10258000400207D42868800716D5E068012800D1EA
:1025900012E033E1E068B8B10120C8F80000FFF7AD
:1025A0001DF8064605E000BFFFF718F8801B02285B
:1025B000C0D828688007F7D52868216920F0F8007E
:1025C00040EAC10028600DE0C8F800A0FFF706F857
:1025D000064604E0FFF702F8801B02281FD828688F
:1025E0008007F7D42078000722D5864F8748616995
:1025F000703771B101210160FEF7F0FF064604E07B
:10260000FEF7ECFF801B022809D838688007F7D551
:102610000EE0C0F800A0FEF7E1FF064605E082E00C
:10262000FEF7DCFF801B02287DD838688007F7D4CE
:102630002078400768D5DFF8CCB100270BF13C0BC0
:10264000DBF80000C0000BD4DBF8001041F0805133
:10265000CBF80010DBF80000012700F0805000905C
:102660006B4E3068C00510D4306840F48070306024
:10267000FEF7B4FF009005E0FEF7B0FF0099401AA6
:10268000022850D83068C005F6D55E4EA0686C367A
:1026900001280FD00528306810D020F001003060EC
:1026A000306820F004003060A068B8B1FEF796FFF3
:1026B00000900FE0306840F00100F4E740F00400C3
:1026C0003060F7E7FEF78AFF0099411A41F288303F
:1026D000814266D830688007F4D50EE0FEF77EFFB1
:1026E000009007E0FEF77AFF0099411A41F2883026
:1026F000814256D830688007F4D42FB1DBF800103F
:1027000021F08051CBF80010A069C8B33D49091DE4
:102710000968C1F3810102294AD00228504607D036
:10272000C8F8600000E03CE0FEF758FF04463BE0DC
:102730004746C8F86000FEF751FF064605E000BFB7
:10274000FEF74CFF801B02282BD828688001F7D4A5
:10275000D4E907010843A16A2E4A490802EB014166
:10276000626A41EA8211084394F82C1040EA016140
:10277000C9F8001001203866FEF730FF044606E075
:102780003EE000BFFEF72AFF001B022809D8286898
:102790008001F7D534E000BFFEF720FF001B0228C0
:1027A00002D90320BDE8F88F28688001F4D427E01F
:1027B0000128F7D0D9F80000E26900F480019142C5
:1027C0001CD1226A00F03F01914217D147F6C07137
:1027D000626A0140B1EB821F10D1A26A4FF0FF3351
:1027E00000F4403103EB5202B1EB024F06D194F8F2
:1027F0002C1000F07060B0EB016F01D00120D1E728
:102800000020CFE70438024000004742800E4742D4
:10281000007000400000FFFF10B5040002D0607F90
:1028200010B106E0012010BD00202077204600F006
:1028300039F8022060772168CA2048622168532055
:102840004862204601F0D8FB30BB20688168144AFA
:10285000114081602168886862681043D4E90423CC
:102860001A43104388602168E068086120680169A4
:10287000228941EA02410161204601F0E1FB58B999
:1028800021680A6C22F480220A6421680A6CA36918
:102890001A430A64012161772268FF21516210BD49
:1028A000BFFF8FFF1FB5002100910191029103919D
:1028B0000068084988420CD102200090C0010390B2
:1028C0006846FFF765FC08B1FEF77CFB0249012072
:1028D00008601FBD002800403C0E474270B504460A
:1028E000007F0B46012819D0012626770220607749
:1028F000B2B19878D97840EA014558781978000241
:1029000040EA413005432168CA20486221685320CB
:102910004862204601F070FBD0B122E0022070BD79
:102920005878C10603D500F0EF000A305870D87807
:1029300001F056FB0204587801F052FB42EA0022F3
:10294000987801F04DFB0243187842EA4035DAE707
:102950000748054020684560204601F071FB00B93A
:1029600066772268FF2151620021217770BD000047
:102970003FFFFF002DE9F0410446007F0D4601288E
:1029800023D04FF0010884F81C8002206077206873
:10299000002780684FEA4060D2B1002800DBEF706A
:1029A000A878297840EA01466878E978000240EA88
:1029B000815006432168CA2048622168532048623A
:1029C000204601F019FBB8B12CE00220BDE8F081EF
:1029D000002800DBEF70287801F002FB0204687821
:1029E00001F0FEFA42EA0022A87801F0F9FA024367
:1029F000E87842EA8056DDE70D4806402068066028
:102A00002068816821F480218160D5E903010843B1
:102A100021688A6810438860204601F011FB08B9DC
:102A200084F81D802268FF2151622777CEE70000DD
:102A30007F7F7F0070B504460068C16821F0A00167
:102A4000C160FEF7CBFD05464FF47A7607E000BF84
:102A5000FEF7C4FD401BB04201D9032070BD2068C1
:102A6000C0688006F4D5002070BD70477047000034
:102A7000F0B5426E920F0A70426EC2F383624A70E2
:102A8000426EC2F301628A70426E120CCA70B0F8D4
:102A90006420120A0A7190F864204A71826E120D45
:102AA000CA80826EC2F303420A72B0F86820C2F391
:102AB000C0324A72B0F86820C2F380328A72B0F82D
:102AC0006820C2F34032CA72B0F86820C2F3003204
:102AD0000A7300264E73426C4FF40075012462B1F4
:102AE000012A3AD0026847499163816B41F08051D5
:102AF000816380F834400120F0BDB0F86820C36ED7
:102B00009205120D42EA93720A61C26EC2F3C2626A
:102B10000A75C26EC2F302624A75C26EC2F34252B5
:102B20008A75C26EC2F38242CA75C26EC2F3C232E5
:102B30000A760A69521C42650B7E03F007039B1C50
:102B40009A4042650B7A03F00F0704FA07F3836596
:102B50005B0A5A43C0E917250EE090F86820C36E5F
:102B60009206920A42EA13420A610A69521C9202D0
:102B70004265C0E91652056630F86C2FC2F3803208
:102B800001F8192F0288C2F3C6124A70027802F0C7
:102B90007F028A704268D20FCA704268C2F34172E3
:102BA0000A714268C2F382624A714268C2F3835278
:102BB0008A714268C2F34052CA710E724268C2F30F
:102BC00000424A728288C2F3C0328A728288C2F39B
:102BD0008032CA728288C2F340320A738288C2F39A
:102BE00000324A738288C2F381228A738288C2F3D8
:102BF0000122CA730079C0F3460008744C740020A7
:102C0000F0BD0000FF05400070B50446B0F850006C
:102C100000250104206801F098FB18B1A16B014365
:102C2000A16304E00021206801F084FA0546C5F3A1
:102C3000432070BDF8B5056B04460068416B09047C
:102C40001BD5290719D5D4E90A56002E14D0002720
:102C5000206801F08FFA05F8010B010A05F8011B45
:102C6000010C05F8021B000E361F7F1C05F8010C35
:102C7000082FEDD3C4E90A56F8BD416B4FF00006AA
:102C8000C9054FF0010744D5390281632068C16B43
:102C90004CF23A329143C1632068C16A21F00101CC
:102CA000C16228071DD515F0220F09D0206801F058
:102CB0007DFB28B1A16B0143A1632046FFF7D6FE3F
:102CC000216840F23A50886384F834702663A8077C
:102CD00003D0204600F0B0F9F8BD204600F0ADF971
:102CE000F8BD2806FCD5A80609D5206801F05EFBD2
:102CF00028B1A16B0143A1632046FFF7B7FEA807E7
:102D0000EED12068C16A21F00801C16284F83470F4
:102D1000E3E7416B490424D5290722D5D4E90856B5
:102D2000002EDDD05FF0000715F8010B009015F8BC
:102D3000011B361F40EA0120009015F8021B40EAF3
:102D40000140009015F8011C40EA016000906946BE
:102D5000206801F022FA7F1C082FE5D3C4E9085649
:102D6000F8BD416B40F23A221142F9D0416B89071C
:102D700003D5A16B41F00201A163416B090703D5A3
:102D8000A16B41F00801A163416B890603D5A16BDA
:102D900041F02001A163416BC90603D5A16B41F04D
:102DA0001001A163416B890503D5A16B41F00801B6
:102DB000A16340F23A7181632068C16B40F23A32FC
:102DC0009143C163206801F0F1FAA16B0843A0634D
:102DD000280706D584F8347026632046FFF746FEA0
:102DE000F8BD2806FCD515F0300F0CD0E16B11486A
:102DF0000865E06BFEF759F90028F1D0E06BBDE8FB
:102E0000F84001F059BCA8070CD0216C0A480865AD
:102E1000206CFEF74AF90028E2D0206CBDE8F840AB
:102E200001F028BCA66384F8347026632046FFF7BF
:102E30001CFEF8BDB94600087546000870B50400D0
:102E40000ED094F83400002518B92577204600F0FC
:102E50004FF8032084F83400204600F00BF808B146
:102E6000012070BDA5632563012084F83400002093
:102E700070BD0000FEB50025044676200095CDE922
:102E8000015029460B460A46206801F05DF948BB0F
:102E9000154E46F8A05F206801F068F901253560FD
:102EA0000220FEF787FA204601F0A0FC30B100BFF7
:102EB00084F83450A16B0143A16313E0204601F074
:102EC0001DFC0028F4D14FF40071206801F09EF938
:102ED000002808D0226805499163A16B0143A163D2
:102EE00084F834500120FEBD00802542FF054000DB
:102EF0002DE9F04F87B0054614216846FDF7ACF97F
:102F00004649286888427DD145480068444940F4D4
:102F100000600860086800F40060059040481438BC
:102F200000683F4940F0040014390860086800F068
:102F300004000590086840F0080008600868022452
:102F400000F0080005904FF48850CDE9000402AA73
:102F5000002003264FF00C0882E841016946314801
:102F6000FEF73AFA02AA002082E841010427CDE9DF
:102F7000007469462C48FEF72FFA2D4C2B484FF071
:102F80000068C4E9000800204FF48069A060C4E92B
:102F90000309B8024FF4804BC4E9050BC4E9097674
:102FA0004FF0200A0020C4E907A07E05B710204694
:102FB000C4E90B67FEF75CF908B1FEF703F82C646F
:102FC000A5631C4C194804F128024830C4E90008E4
:102FD0004020A0600020C4E90309C4E907A0042040
:102FE0006062032082E8C1004FF48051C4E9051BF0
:102FF0002046FEF73DF908B1FDF7E4FF0022EC633F
:10300000012100E006E03120A563FEF755FB3120E9
:10301000FEF744FB07B0BDE8F08F0000002C014034
:103020004438024000080240000C0240586402404C
:10303000E80B0020480C00207047704710B5401E78
:10304000B0F1807F01D3012010BD4FF0E02460611A
:103050000F21601703F0ADFE0020A0610720206162
:10306000002010BD7047704770B590F83C20012AD1
:1030700032D0012480F83C40022280F83D200368D1
:103080005A689D6822F070060A6832435A60134BF2
:1030900002689A4214D0B2F1804F11D0104B9A427C
:1030A0000ED0104B9A420BD00F4B9A4208D00F4BC8
:1030B0009A4205D00E4B9A4202D00E4B9A4204D14E
:1030C000496825F080031943916080F83D40002154
:1030D00080F83C10084670BD022070BD0000014021
:1030E0000004004000080040000C004000040140C3
:1030F000004001400018004010B5040003D094F8CF
:103100003D0010B107E0012010BD002084F83C0014
:10311000204600F01FF8022084F83D00211D2068A1
:1031200001F008FD012084F8460084F83E0084F890
:103130003F0084F8400084F8410084F8420084F89D
:10314000430084F8440084F8450084F83D000020E2
:1031500010BD000008B500680B49884212D10B4829
:10316000016841F0010101600068002200F00100E7
:10317000009011461920FEF79FFABDE8084019207B
:10318000FEF78CBA08BD0000000001404438024040
:1031900090F83D10012901D001207047022180F8EC
:1031A0003D100168CA6842F00102CA600068114916
:1031B000884214D0B0F1804F11D00F4988420ED010
:1031C0000E4988420BD00E49884208D00D498842EA
:1031D00005D00D49884202D00C49884204D181684B
:1031E00001F00701062903D0016841F001010160E7
:1031F000002070470000014000040040000800402B
:10320000000C004000040140004001400018004054
:1032100070B5044690F83C000025012817D001261F
:1032200084F83C60022084F83D002068826822F027
:10323000770222F47F4282600868502838D00DDC83
:1032400020284FD005DC90B3102811D14AE002208D
:1032500070BD302846D040280AD13BE060282FD0EE
:1032600070280DD0B0F5805F03D0B0F5005F12D0AC
:10327000012584F83D60002084F83C00284670BD9C
:10328000CB68D1E90121206801F0D2FC2068816877
:1032900041F0770109E0CB68D1E90121206801F014
:1032A000C7FC2068816841F480418160E1E719E052
:1032B000CA684968206801F0DDFC5021206806E0FA
:1032C000CA684968206801F0E6FC6021206801F0C6
:1032D000C5FCCEE7CA684968206801F0CBFC4021F4
:1032E0002068F4E7226801461046F0E7704770B5A1
:1032F0000446006801694FF00005C943890715D4E9
:10330000C168C943890711D4E91E016101202077F2
:10331000206880698007204602D0FFF7E7FF04E0BD
:1033200000F098F8204600F096F8257720680169AB
:10333000C943490717D4C168C943490713D46FF07B
:1033400004010161022020772068806910F4407F29
:10335000204602D0FFF7CAFF04E000F07BF82046C9
:1033600000F079F8257720680169C943090716D468
:10337000C168C943090712D46FF008010161042034
:1033800020772068C0698007204602D0FFF7AEFF93
:1033900004E000F05FF8204600F05DF82577206833
:1033A0000169C943C90617D4C168C943C90613D402
:1033B0006FF010010161082020772068C06910F4C7
:1033C000407F204602D0FFF791FF04E000F042F872
:1033D000204600F040F8257720680169C943C907F5
:1033E00008D1C168C943C90704D1891E01612046BB
:1033F00000F032F820680169C943090609D4C168A0
:10340000C943090605D46FF0800101612046FFF72A
:1034100029FE20680169C943490609D4C168C94326
:10342000490605D46FF040010161204600F015F80F
:1034300020680169C94389060BD4C168C94389065C
:1034400007D46FF0200101612046BDE87040FFF70E
:103450000ABE70BD7047704770477047704710B51F
:1034600004460068406994F83D10C0F3C01021295B
:1034700011D180B12068143050E8001F21F0800184
:1034800040E80012002AF5D1606B08B1FDF7C4FDD9
:10349000204601F0B4FC2068406994F83E10C0F367
:1034A0008010222911D180B12068143050E8001F0B
:1034B00021F0400140E80012002AF5D1A06B08B1CC
:1034C000FDF7AAFD204601F073FC002010BD7047F7
:1034D00010F83D1F4078084370470000F8B50168B8
:1034E00004460868CA684B6910F00F0F4FF00005DA
:1034F00059D003F0010602F49077374365D0C10735
:1035000005D0D10503D5216C41F0010121644107AB
:1035100005D5D90703D0216C41F002012164810750
:1035200005D5D90703D0216C41F0040121640107BE
:1035300007D502F02001314303D0216C41F008018E
:103540002164216C00293AD0800604D5900602D56A
:10355000204601F062FC20684069216CC0F38010B5
:10356000090700D460B3204601F022FC20684069BE
:10357000400621D52068143050E8001F21F040019A
:1035800040E80012002AF5D1A06BA8B16C49016592
:10359000A06BFDF78AFD002811D0A06B016D01B072
:1035A000BDE8F040084783060FD593060DD52046A9
:1035B000BDE8F84001F031BC2046FFF788FFF8BDB8
:1035C0002046FFF784FF2564F8BD266B2023012EDB
:1035D00079D1C60677D5D60675D5086848680090B3
:1035E0004869400640D5A16B086840680004000C9B
:1035F000EAD0A28D8242E7D9E085C869B0F5807F24
:103600002DD020680C3050E8001F21F4807140E874
:103610000012002AF5D12068143050E8001F21F074
:10362000010140E80012002AF5D12068143050E86A
:10363000001F21F0400140E80012002AF5D184F873
:103640003E30256320680C3050E8001F21F0100147
:1036500040E80012002AF5D1A06BFDF7DDFCA08D3B
:10366000E18D401A81B229E0A08DE18D401A81B22E
:10367000E08D0028A8D00029A6D020680C3050E8A2
:10368000002F22F4907240E80026002EF5D1206829
:10369000143050E8002F22F0010240E80026002EEE
:1036A000F5D184F83E30256320680C3050E8002FB7
:1036B00022F0100240E80023002BF5D12046FFF74E
:1036C000CDFEF8BDFFE705062BD5150629D594F8E4
:1036D0003D002128F5D1A068B0F5805F01D12069B7
:1036E000B0B1206A411C2162216800784860E08CFA
:1036F000401E0004000CE084E3D12068C16821F082
:103700008001C1602068C16841F04001C160D8E714
:10371000206A0088C0F308004860206A801C20628C
:10372000E5E74006CDD55006CBD5CA68204622F045
:103730004002CA6084F83D3000F056F9C1E700004D
:10374000BB4C000870B5040004D094F83D0000257F
:1037500010B106E0012070BD84F83C50204600F016
:1037600023F8242084F83D002068C16821F400512A
:10377000C160204601F0B2FB2068016921F490414C
:1037800001612068416921F02A0141612068C16816
:1037900041F40051C1602564202084F83D0084F884
:1037A0003E00002070BD00002DE9F04786B00546C0
:1037B00014216846FCF750FD6648654A29680227CF
:1037C000DFF894C1002406154FF003084FF00709F5
:1037D0004FF0006A91424DD15E4914310A6842F0BF
:1037E00010020A60096801F010010591016841F0BA
:1037F00001010160006802AA00F0010005904FF489
:10380000C060CDE9000782E8100369466046FDF715
:10381000E3FD534F5148D0463860C7E901A4C7E9DA
:1038200003467C61BC61FC613C6238467C62FDF70A
:103830001FFD08B1FDF7C6FBAF63BD634748494FA5
:103840007830E7E80208402051C7464847F8144955
:10385000BC61FC613C627C62FDF70AFD08B1FDF7CA
:10386000B1FB6F63002201212520BD63FDF724FF1A
:10387000252039E0374A3C4B1032994239D1116842
:1038800041F400311160116801F4003105910168C3
:1038900041F001010160006802AB00F001000590F9
:1038A0000C20CDE90007012083E80103694660464A
:1038B000FDF792FD2E4F2D483860C7E901A4C7E9F6
:1038C00003467C61BC61FC613C6238467C62FDF76A
:1038D000CFFC08B1FDF776FBAF6300220121262063
:1038E000BD63FDF7E9FE2620FDF7D8FE06B0BDE872
:1038F000F087204B9942F9D1116841F48021116081
:10390000116801F480210591016841F00201016014
:103910000068009600F00200059001AB122083E8D9
:103920001103154D69462846FDF756FDE814CDE90B
:10393000000702AB694683E810032846FDF74CFDFB
:10394000002203212720FDF7B7FE2720CCE7000047
:103950000010014030380240000002404064024044
:10396000A80C0020080D00200044004088600240A0
:10397000680D0020004800400004024090F83E30EE
:10398000202B0ED159B152B190F83C30012B08D008
:10399000012380F83C300023036301F025BB0120A4
:1039A0007047022070477047704790F83D30202BD9
:1039B00018D1A9B1A2B190F83C30012B12D001620C
:1039C0008284C28400210164212280F83D2080F895
:1039D0003C100068C16841F08001C1600020704760
:1039E00001207047022070477047FEE7F0B50023C2
:1039F0000A24302537261F4611E000BFB4EB107FA4
:103A000002D905EB107C01E006EB107C01F813C035
:103A100001EB430C00015B1C8CF80170DBB293429C
:103A2000ECD3F0BD1D4808B5016841F48001016088
:103A3000016801F480010091016841F40011016006
:103A40000068002200F40010009011461020FDF7DD
:103A500033FE1020FDF722FE002211463A20FDF72A
:103A60002BFE3A20FDF71AFE002211463B20FDF7FF
:103A700023FE3B20FDF712FE002211464520FDF7F4
:103A80001BFE4520FDF70AFE002211464620FDF7E9
:103A900013FEBDE808404620FDF700BE3038024066
:103AA00070B586B014216846FCF7D6FB2D4800247B
:103AB000016841F004010160016801F00401059111
:103AC000016841F020010160016801F020010591C9
:103AD000016841F080010160016801F080010591F9
:103AE000016841F001010160016801F001010591E7
:103AF000016841F002010160016801F002010591D5
:103B0000016841F0080101600068174E00F00800EC
:103B100042F201050590002229463046FDF759FD85
:103B200000950125CDE90154694630460394FDF71F
:103B300053FC2A208DE8310069460C48FDF74CFC07
:103B40000420CDE90004694630460294FDF744FCA8
:103B50004FF4A8508DE8310069460548FDF73CFC5C
:103B600006B070BD30380240000802400014024028
:103B7000000C024070B586B014216846FCF76CFB5F
:103B80001C4800241A490594C0E900147F21816073
:103B9000FF21C0E9031444618461FEF73DFE08B1D2
:103BA00072B6FEE701258DF8005010268DF80160F1
:103BB00006208DF8020003942A4669460D480494B5
:103BC000FEF7D8FE08B172B6FEE78DF814508DF8F6
:103BD00015508DF816508DF81760012205A905487B
:103BE000FEF77CFE002801D072B6FEE706B070BD7D
:103BF000002800403002002010B586B0002418488C
:103C0000009401940294039404941449059401606F
:103C1000A821C0E901144FF47A71C0E9031480218E
:103C2000C0E90541FFF768FA08B172B6FEE74FF444
:103C30008050009069460A48FFF7EAFA08B172B668
:103C4000FEE7049404A906480594FFF70DFA00283E
:103C500001D072B6FEE706B010BD000000000140C2
:103C6000D402002010B500220F49104801F039FE9F
:103C700008B1FDF7A7F90E490C4802F047F808B162
:103C8000FDF7A0F90B49094801F0DAFB08B1FDF78F
:103C900099F9064802F0BEF8002803D0BDE81040AC
:103CA000FDF790B910BD00002C000020C80D0020C9
:103CB0000001002084000020FEE7FEE70148FDF738
:103CC00089BE00000431002070B505460C46081F6F
:103CD00081B2A81CFDF78CF90B49281910F8022CA9
:103CE000CB799A420AD110F8010C097A884205D1A1
:103CF00021462846BDE87040FCF7C8BFBDE87040CB
:103D000002A003F033B800004801002020204372D5
:103D1000632077726F6E670D0A0000007047000025
:103D200038B50E4C20680168C90616D50168406890
:103D300000902046FFF793FBA06B00684068C0F539
:103D4000806107484180012141708A0204F1CC0161
:103D50002046BDE83840FFF711BE38BD1C030020E7
:103D60000000002038B5124C20680168C9061ED535
:103D70000168406800902046FFF771FBA06B006867
:103D800040680C4CC0F58060A080A1880A48FFF70D
:103D90009BFF012000F056FF20694FF48062401C19
:103DA0002061BDE8384004490148FFF7E7BD38BD50
:103DB0006003002000000020E80700202DE9F0410A
:103DC00003680D4604461E6C03EB4511D1F8080B41
:103DD000D4F810E04FF400474FF0200C04F2C44236
:103DE000BEF1010F09D0DFF898E0764539D1020421
:103DF00032D500BFC1F8087B3FE0224B5FEA007E6E
:103E000004D59E4239D90004F4D436E05FEA806ECE
:103E100002D5C1F808CB30E010F0280F2DD19E421A
:103E200001D90004E6D405EBC50004EB8000D1F80D
:103E3000101BD0F89832C1F31201591AC0F89C1225
:103E400000F51F70ADB983691BB1026911440161AE
:103E50000FE0012120680AE080060AD5C1F808CBEE
:103E600007E035B9D4F8940218B90021184602F0D9
:103E7000CFFBE9B22046FDF785FC0020BDE8F081CC
:103E80000A31544F0A30544F2DE9F84F0E4601EBDA
:103E9000C60100EB810481460568616DE06D3C342C
:103EA000884202D90120BDE8F88F081AE1688142F2
:103EB00000D20846C01C870805EB46181BE000BF6F
:103EC000A0EB010AE068504500D282460AF10300E7
:103ED000870899F8100000901FFA8AF3F2B228467A
:103EE000216902F003FF216901EB0A002061216AC8
:103EF00001EB0A002062D8F8180980B2B84205D355
:103F0000216AA069814201D20028D9D1216AA06921
:103F1000884208D806F00F0101208840D5F83418EF
:103F20008143C5F834180020BDE7704730B4224BF8
:103F3000002400BF00EBC40595ED000B93F840563C
:103F400005EB850503EB051505EBC40585ED000BB9
:103F500001EBC40595ED000B93F8405605EB850584
:103F600003EB051505EBC405641C85ED060B032C5E
:103F7000E0DB002002EBC00191ED000B93F840164E
:103F800001EB810103EB011101EBC001401C81ED4C
:103F90000C0B0428EEDB93F84006401CC0B283F8FB
:103FA0004006142806D3002083F8400630BC03A046
:103FB00002F0DCBE30BC704710360020496E7346FC
:103FC00069666F2066756C6C2C20706F696E746505
:103FD0007220726573657420746F20300D0A0000C2
:103FE000002103E0491C0A38C9B2C0B20A28F9D23C
:103FF000090740EA116070472DE9F0410446006866
:104000000025C168490618D4C16841F08001C1602B
:10401000FDF7E4FA06464FF47A78042707E000BF7C
:10402000FDF7DCFA801B404501D967770125206840
:10403000C068400601D4002DF2D02846BDE8F081CA
:1040400070B5044600680025C16821F08001C16098
:1040500020688068800606D42046FEF7EBFC10B18D
:10406000042060770125284670BD00002DE9F0414D
:10407000294D002404212846FDF7A6FA671E0128D1
:1040800040D00026012211462846FDF7A2FA6420FE
:10409000FCF774FE002201212846FDF79AFA6420FD
:1040A000FCF76CFE640004212846FDF78DFA012818
:1040B00000D1641C6420FCF761FE761CF6B2182E59
:1040C000E0D30026012211462846FDF782FA64203B
:1040D000FCF754FE002201212846FDF77AFA6420FD
:1040E000FCF74CFE761C16F0FF06EBD00B48844222
:1040F00008D00B48844205D00A48844202D04010C0
:10410000844202D13846BDE8F081002000F09AFDDB
:104110000548C4602046F6E700080240FFFF7F0024
:10412000FFFFBF00FFFF3F0048010020006800F0D4
:104130000300704708444069704700000148FEF7DB
:1041400079BD00005002002070B50DF1100C114334
:104150009CE870002343194329434268314347F6E2
:10416000FF639A430A434260002070BD032101604F
:1041700000207047D0F8800070470A688260D1E95B
:1041800001231A43D1E903310B43C1681A436FF38A
:104190000B011143C160002070470968C0F880100E
:1041A0000020704710B585B004463720CDE90010D7
:1041B00040200290002003904FF4806004906946F4
:1041C0002046FFF7DAFF41F288323721204600F01F
:1041D00007F905B010BD000010B504460A4885B0C7
:1041E00001432920CDE900104020029000200390D7
:1041F0004FF48060049069462046FFF7BEFF2046DA
:1042000000F0A6F905B010BD0000108010B585B013
:1042100004461020CDE900104020029000200390B9
:104220004FF48060049069462046FFF7A6FF41F2F4
:1042300088321021204600F0D3F805B010BD0000F0
:1042400030B585B000240546009401944FF4806099
:104250000294CDE9034069462846FFF78EFF0B48DC
:104260004FF4FA510068B0FBF1F041F28831484355
:10427000401E03D24FF0004005B030BD696B090607
:10428000F6D5C520A8632046F6E70000A40000206C
:1042900010B585B004464FF4D57000900820019009
:1042A00040200290002003904FF480600490694603
:1042B0002046FFF762FF204600F0B0F905B010BDC0
:1042C00010B585B004460720CDE9002040200290BB
:1042D000002003904FF48060049069462046FFF769
:1042E0004CFF41F288320721204600F079F805B0F2
:1042F00010BD10B585B0044600210220CDE90010A4
:10430000C020CDE902014FF4806004906946204648
:10431000FFF733FF204600F0F3F805B010BD10B5ED
:1043200085B004460920CDE90010C020029000208D
:1043300003904FF48060049069462046FFF71DFF0C
:10434000204600F0DDF805B010BD10B585B004467C
:104350000D20CDE9001040200290002003904FF482
:104360008060049069462046FFF707FF41F28832DB
:104370000D21204600F034F805B010BD30B585B0F1
:104380000C46054600210320CDE900104020CDE970
:1043900002010001049069462846FFF7EEFE22461E
:1043A0000321284600F0F6F805B030BD10B585B001
:1043B000044600210C20CDE900104020CDE9020187
:1043C0000001049069462046FFF7D7FE034A0C21FE
:1043D000204600F005F805B010BD000000E1F5052D
:1043E000454B10B51B684FF4FA54B3FBF4F3534339
:1043F0005B1E02D24FF0004010BD426B12F0450F21
:10440000F6D01205F4D4426B520703D50421816320
:10441000084610BD426BD20702D00121816305E03E
:10442000C52282630269D2B28A4201D0012010BD46
:104430000021FFF77FFE3149084201D1002010BD65
:10444000002802DA4FF0007010BD410001D5402075
:1044500010BD810001D5802010BDC10002D54FF4F0
:10446000807010BD010102D54FF4007010BD4101F4
:1044700002D54FF4806010BDC10102D54FF4006039
:1044800010BD010202D54FF4805010BD410202D58B
:104490004FF4005010BD810202D54FF4804010BD92
:1044A000C10202D54FF4004010BD410302D54FF4C4
:1044B000003010BD810302D54FF4802010BDC10330
:1044C00002D54FF4002010BD010402D54FF4801036
:1044D00010BD410402D54FF4001010BD810402D577
:1044E0004FF4800010BD000702D54FF4000010BD4E
:1044F0004FF4803010BD0000A400002008E0FFFD54
:1045000012494FF4FA520968B1FBF2F141F28832D4
:104510005143491E02D24FF000407047426B12F0E7
:10452000450FF6D01205F4D4416B490703D5042199
:10453000816308467047416BC90703D0012181633D
:1045400008467047C521816300207047A400002001
:104550000F494FF4FA520968B1FBF2F141F2883287
:104560005143491E02D24FF000407047426B12F097
:10457000450FF6D01205F4D4416B490703D5042149
:10458000816308467047C5218163002070470000A1
:10459000A400002030B5204B4FF4FA541B68B3FB45
:1045A000F4F341F2883463435B1E02D24FF00040C3
:1045B00030BD446B14F0450FF6D02405F4D4436BA2
:1045C0005B0703D504218163084630BD436BDB07DD
:1045D00002D00121816303E00369DBB28B4201D089
:1045E000012030BDC52181630021FFF7A3FD10F438
:1045F000604F04D0410406D54FF4005030BD000C8C
:104600001080002030BD000402D54FF4805030BD32
:104610004FF4803030BD0000A400002014494FF456
:10462000FA520968B1FBF2F141F288325143491E56
:1046300002D24FF000407047426B12F0450FF6D0A7
:104640001205F4D4416B490703D504218163084660
:104650007047416BC90703D0012181630846704749
:10466000416B490601D5402181630020704700005D
:10467000A400002010B5846B40F23A502168886392
:104680002046FEF7C1FA012184F83410002121638D
:10469000062801D0052805D12068FFF787FEA16B09
:1046A0000843A063A06B0028204602D0FEF7DEF985
:1046B00010BDFEF7DAF910BD10B5846B40F23A5028
:1046C000216888632046FEF79FFA012184F83410A0
:1046D00000212163062801D0052805D12068FFF7B5
:1046E00065FEA16B0843A063A06B0028204602D0A2
:1046F000FEF7BCF910BDFEF7B8F910BD10B590B0CB
:1047000004460120ADF838002068FFF70FFD0028AF
:1047100054D0606C032842D02068FFF7EAFD0028DF
:104720004AD100212068FFF705FD60670421206859
:10473000FFF700FDA06708212068FFF7FBFCE0679A
:104740000C212068FFF7F6FCC4F88000606C032899
:1047500025D00EA92068FFF711FE00282CD1606C2F
:1047600003281CD0BDF83800206501042068FFF73D
:10477000D6FD002820D100212068FFF7DBFC606611
:1047800004212068FFF7D6FCA06608212068FFF707
:10479000D1FCE0660C212068FFF7CCFC20670421E7
:1047A0002068FFF7C7FC000DE06403A92046FEF770
:1047B0005FF930B14FF0805010B010BD4FF0806005
:1047C000FAE7B4F85000002302042068FFF778FDF0
:1047D0000028F1D104F1100007C88DE8070094E823
:1047E0000F00FFF7B1FC0020E6E700002DE9F84FCD
:1047F0000026044600963546B0460068FFF720FDC7
:10480000002827D12068FFF743FD4FF0805B4FF071
:1048100001094FF6FF7748B1A6642068FFF710FD45
:10482000002817D1A06C012802D020E0C4F84890DD
:1048300000212068FFF7B6FC58B918E00021206875
:10484000FFF7B0FC002805D151462068FFF7C4FCF3
:1048500010B15846BDE8F88F00212068FFF76AFCC8
:1048600005464FEAD0780098401C009002E0DFF83F
:104870002CA00098B84202D2B8F1000FDED0009808
:10488000B84202D34FF08070E4E7680002D5C4F864
:10489000449000E066640020DCE70000000010C1E6
:1048A000024890ED000AFCF771BA000010020020E7
:1048B00070470178407841EA0020704710B50348FE
:1048C00003F0E0FB02490120487010BD08450020BC
:1048D000180200202DE9F04F8FB0DFF814A18346B5
:1048E000DDE919879AF80100DDF860901C4615464D
:1048F0000E4608B9FFF7E2FF00EE10BAB8EE400A24
:104900008DED040A96ED000B51EC100BFBF798FEB1
:10491000059096ED020B51EC100BFBF791FE069003
:1049200096ED040B51EC100BFBF78AFE079095ED0A
:10493000000B51EC100BFBF783FE089095ED020B7A
:1049400051EC100BFBF77CFE099095ED040B51EC3C
:10495000100BFBF775FE0A9094ED000B51EC100B59
:10496000FBF76EFE0B9094ED020B51EC100BFBF776
:1049700067FE0C9094ED040B51EC100BFBF760FEFE
:104980000D9094ED060B51EC100BFBF759FE0E90B9
:104990006A4604A9174803F0B1FB9DED020A504690
:1049A0008AED010ADDED000ACAED020ADDED010A19
:1049B000CAED030A9DF80C1001B101210170B9F193
:1049C000000F01D089ED000AB8F1000F03D09DED72
:1049D000000A88ED000A1FB19DED010A87ED000A6B
:1049E0009DF80C00002800D001200FB0BDE8F08F2A
:1049F0001802002008450020054810B590ED000A77
:104A000010EE100AFBF7D9FD024AC2E9080110BDF9
:104A10001C02002080010020084800219FED080BA7
:104A2000818001700846084901EBC002401C82EDFC
:104A3000000B3128F8DD05A002F098B980010020B4
:104A40000000000000000000284300205374617241
:104A500074204D6561737572650A0000FCF7C4BD72
:104A600030B593B030216846FBF7F6FB14210CA853
:104A7000FBF7F2FB1F480025016841F080510160FF
:104A8000006800F0805011901B48016841F480419B
:104A900001600068022400F480401190052000901D
:104AA0004FF480300190012002908005CDE906404E
:104AB00004200890A820CDE9090407200B9068463F
:104AC000FDF7F4FC08B172B6FEE70CA90F2081E8EF
:104AD00031004FF4A0500F904FF4805010900521FA
:104AE0000CA8FDF7F3FB002801D072B6FEE713B067
:104AF00030BD0000403802400070004002480168AC
:104B000041F470010160704788ED00E010B506487F
:104B100000F0ACF805480168491C0160BDE8104090
:104B20000348FEF7E4BB0000B84400202800002042
:104B3000D4020020F0B50268254C264D264E274FA2
:104B4000274B4FF0804CA04209D0604507D0A842C7
:104B500005D0B04203D0B84201D0984204D122F02F
:104B6000700E4A6842EA0E02A0421BD0604519D07E
:104B7000A84217D0B04215D0B84213D0984211D0F5
:104B8000184DA8420ED0184DA8420BD0174DA84280
:104B900008D0174DA84205D0164DA84202D0164D98
:104BA000A84203D122F44075CA682A434D6922F015
:104BB00080022A4302608A68C2620A688262A04256
:104BC00001D0984201D10969016301214161F0BD21
:104BD000000001400004004000080040000C0040BC
:104BE00000040140004001400044014000480140F1
:104BF00000180040001C0040002000400B4A816962
:104C0000B1FBF2F34361B1FBF2F302FB13114EF679
:104C10006022B1FBF2F30361B1FBF2F302FB13116B
:104C20004FF47A72B1FBF2F10160704780EE36000A
:104C300010B5846842EA032224F47F440A432243E5
:104C4000826010BD04498A6918B1012800D10A6246
:104C50007047CA6170470000B8440020826822F0A3
:104C600070020A4342F00701816070478169491C64
:104C70008161704710B5036A046A24F0010404627C
:104C8000846924F0F00444EA021423F00A020A437F
:104C90008461026210BD10B5036A23F01003036241
:104CA0008369046A23F4704343EA023224F0A003C8
:104CB00043EA01118261016210BD10B5806B0021D1
:104CC000C185C184FEF703FC10BD70B5846B2068FC
:104CD000406994F83D10C0F3C0100025212904D18B
:104CE00018B1E584204600F08AF82068406994F8FD
:104CF0003E10C0F38010222904D118B1E58520466A
:104D000000F056F8206C40F0100020642046FEF7BA
:104D1000DEFB70BD10B50146806B09680968C905E6
:104D20002FD40021C18501680C3151E8002F22F4F5
:104D3000807241E80023002BF5D10168143151E85D
:104D4000002F22F0010241E80023002BF5D1016879
:104D5000143151E8002F22F0400241E80023002BDB
:104D6000F5D1202180F83E10016B012909D101689D
:104D70000C3151E8002F22F0100241E80023002BF3
:104D8000F5D1016B012902D0FEF70DFE10BD818D1A
:104D9000FEF764FB10BD10B5806B016B012902D0DA
:104DA000FEF702FE10BD818D4908FEF757FB10BDCE
:104DB00001680C3151E8002F22F4907241E8002381
:104DC000002BF5D10168143151E8002F22F00102C7
:104DD00041E80023002BF5D1016B012909D10168BD
:104DE0000C3151E8002F22F0100241E80023002B83
:104DF000F5D1202180F83E10002101637047016841
:104E00000C3151E8002F22F0C00241E80023002BB2
:104E1000F5D1202180F83D10704708B590F83E107C
:104E2000222901D0022008BD82684FF480539A42A3
:104E300001D1016921B1816A9A421BD04AB10AE0CD
:104E40000268816A5268C2F308020A80816A891C7A
:104E500008E0026972B10268526802F07F020A70CB
:104E6000816A491C8162C18D491E0904090CC185F2
:104E700003D019E002685268F1E70168CA6822F0BD
:104E80002002CA600168CA6822F48072CA600168A0
:104E90004A6922F001024A61202180F83E10016B2C
:104EA000012903D0FEF77FFD002008BD002101632A
:104EB00001680C3151E8002F22F0100241E8002374
:104EC000002BF5D101680A68D20602D50A68496844
:104ED0000091818DFEF7C2FAE6E7000070B5044646
:104EE00000680169E26821F44051114301612169C0
:104EF000A068E26908436169114308432168CA68F0
:104F000049F20C639A430243CA6020684169A2696E
:104F100021F440711143416131492068884202D037
:104F20003049884202D1FDF781FA01E0FDF76EFABF
:104F3000E2690023192164253226B2F5004F626828
:104F400028D0A0FB0101930F9200FBF73BF901462B
:104F5000B0FBF5F06FF01802504301EB800006EB58
:104F60000010B0FBF5F000F0F002B1FBF5F002EB41
:104F70000012B1FBF5F06FF01803584301EB80000D
:104F800006EB0010B0FBF5F000F00F0021681044B4
:104F9000886070BDA0FB010192185B41FBF712F91C
:104FA0000146B0FBF5F00201B1FBF5F06FF018031C
:104FB000584301EB800006EBC000B0FBF5F000F0B9
:104FC000F80002EB4002B1FBF5F0584301EB800022
:104FD00006EBC000B0FBF5F000F00700D6E70000DC
:104FE000001001400014014038B58162828500251F
:104FF000134604460564222084F83E00A26B1C4838
:10500000D063A26B1B481064A26B1B48D064A06BDA
:105010000A4605652168A06B091DFCF793F9206815
:1050200001684068009084F83C50206948B12068CD
:105030000C3050E8001F41F4807140E80012002A53
:10504000F5D12068143050E8001F41F0010140E81C
:105050000012002AF5D12068143050E8001F41F0FA
:10506000400140E80012002AF5D1002038BD0000C0
:10507000154D0008974D0008CB4C000810B50348AB
:10508000FEF72CFABDE81040FEF74ABE1C030020D4
:1050900010B50348FEF722FABDE81040FEF762BEE5
:1050A000600300200148FEF719BA0000A4030020A5
:1050B0002DE9F0410C46D0F8D412D0F8C82200EB0C
:1050C0008101D1F8C01229B304F00F0606EB860364
:1050D00000EB83050027AB694BB106EBC60602EB7C
:1050E0008602926CB3FBF2F602FB1632A2B1C1F853
:1050F0001472D0F8D42200EB8200D0F8C402036905
:105100002BB1D1F80802224601F50471984700201E
:10511000BDE8F0810320FBE700231A462146AF617A
:1051200000F0D5FDF3E770B50546D0F8D40205EBE5
:105130008000D0F8C04294B1284600F0AAFCC4F820
:105140000C02D5F8D412D4F8040205EB8101D1F891
:10515000C412CA6804F503719047002070BD032093
:1051600070BD000070B5224D0446297800F0D5FBD3
:105170002878002600F00F0000EB800004EB800090
:1051800086846978204600F0C8FB687800F00F003C
:1051900000EB800004EB8000A0F86461A978204651
:1051A00000F0BBFBA87800F00F0000EB800004EBE0
:1051B00080008684C684D4F8D40204EB8000D0F842
:1051C000C01299B1D0F8C40240688047D4F8D40224
:1051D00004EB8000D0F8C00200F09DFFD4F8D402A8
:1051E00004EB8000C0F8C062C4F8BC62002070BD4F
:1051F000AC00002010B5D0F8D41200EB8100D0F83C
:10520000C04284B1D0F8C41259B194F80002FF280A
:1052100007D08B6894F8012221469847FF2084F834
:105220000002002010BD032010BD00000A210180F3
:1052300000487047B000002070B5064682210C4837
:1052400000F0FBFA05460121094800F0F6FA044691
:105250008121074800F0F1FA0DB11021A971402118
:1052600004B1A18000B1818043203080004870BD2E
:10527000BC00002070B5064682210D4800F0DDFA22
:10528000054601210A4800F0D8FA04468121084861
:1052900000F0D3FA0DB11021A9714FF4007104B1DF
:1052A000A18000B1818043203080014870BD0000A2
:1052B000BC00002070B5064682210C4800F0BDFA03
:1052C00005460121094800F0B8FA04468121074843
:1052D00000F0B3FA0DB11021A971402104B1A180F1
:1052E00000B1818043203080004870BDBC000020A8
:1052F0002DE9F04704464FF40775284600F00CFFEF
:1053000006004FF0000863D02946FAF7A5FFD4F84D
:10531000D4023C4D04EB80004FF01009C0F8C0628D
:10532000C4F8BC62207C4FF4007A0127F0B340231C
:1053300002222978204600F019FC2878402300F04A
:105340000F0000EB800004EB800087840222697864
:10535000204600F00BFC6878082300F00F0000EBFB
:10536000800004EB80000322A0F86471A978204635
:1053700001F00F0101EB810104EB8101A1F82690FE
:10538000A97800F0F3FBA87800F00F0000EB800094
:1053900004EB80008784C6F80482D4F8D402474620
:1053A00004EB8000D0F8C402006800E018E006F5C5
:1053B000017680473761776132687AB1207CF8B135
:1053C00040236978204600F0DDFB0020BDE8F0872F
:1053D000D4F8D41204EB8101C1F8C0820220F5E7B1
:1053E000534602222978204600F0C0FB2878534615
:1053F00000F00F0000EB800004EB80008784A5E73D
:105400005346DEE7AC00002010B5D0F8D41200EB14
:105410008101D1F8C01259B1027C084C002AD1F8A0
:10542000042207D04023617800F0ACFB002010BDBF
:10543000032010BD4FF40073F5E70000AC0000201E
:1054400039B1D0F8D42200EB8200C0F8C412002099
:10545000704703207047D0F8D42200EB8200D0F8C8
:10546000C00218B1C0F80412002070470320704732
:10547000D0F8D43200EB8300D0F8C00228B1C0F8D5
:105480001022C0F8081200207047032070472DE951
:10549000FC410646D0F8D4020C4606EB8000002101
:1054A000D0F8C0728DF80010ADF804100D4637B179
:1054B000217811F060022FD0202A4BD102E0032086
:1054C000BDE8FC81E288F2B109060DD5D0F8C4022E
:1054D00063783946D0F808C01846E047E288072AC2
:1054E00000D9072239462DE0607887F80002E0886D
:1054F000402800D34020C2B287F801223946304606
:1055000000F081F82BE0D0F8C402637800228668AE
:1055100021461846B04722E0607830B101281ED0FD
:105520000A2809D00B2815D110E096F89C02032810
:1055300010D1022201A905E096F89C02032809D1A6
:1055400001226946304600F078F808E096F89C029F
:10555000032804D02146304600F04AF803252846A7
:10556000AEE7000010B5D0F8D41200EB8101D1F8FD
:10557000C02201211AB1D2F8143213B116E003206F
:1055800010BD0121C2F814120949D2F8103209786D
:1055900001F00F0404EB840400EB8404A361D2F84F
:1055A0001032D2F8082200F092FB0021084610BD0C
:1055B000AC00002010B5D0F8B82200245268904703
:1055C00000B10324204610BD002070470020704722
:1055D000134610B50A46002100F0D4FA002010BD91
:1055E000134610B50A46002100F071FB002010BDE3
:1055F00010B50446802100F04FFB2046BDE8104066
:10560000002100F049BB10B50323C0F89432C0F864
:1056100058211346C0F85C210A46002100F0B2FA76
:10562000002010BD10B50521C0F8941200231A46C1
:10563000194600F0A7FA002010BD10B50223C0F8EB
:10564000943282611346C2610A46002100F03FFB9A
:10565000002010BD10B50421C0F8941200231A4692
:10566000194600F034FB002010BD000010B50A46BA
:10567000024903A000F005F9004810BDA410002065
:1056800043444320436F6E66696700001220088020
:10569000004870474C00002010B50A46024903A09C
:1056A00000F0EFF8004810BDA41000204344432050
:1056B000496E7465726661636500000004200880AD
:1056C000004870474800002010B50A46024903A070
:1056D00000F0D7F8004810BDA410002053544D69C5
:1056E00063726F656C656374726F6E6963730000DB
:1056F00010B50A46024903A000F0C3F8004810BDE7
:10570000A410002053544D333220566972747561D1
:105710006C20436F6D506F727400000010B51A203A
:1057200008800A480168001D0468001D0068081808
:1057300009D008220649FEF759F90549042210311B
:105740002046FEF753F90248801E10BD107AFF1F55
:1057500062000020F8B504460020ADF8000048883B
:105760000D46010A08295FD2DFE801F05E0409173F
:105770005E5E3C45D4F8B412207C0A6819E0207CB7
:1057800002260028D4F8B80205D0C16A68468847C6
:105790000146467039E0816AF8E7C0B2062843D274
:1057A000DFE800F0030A1014181CD4F8B4024268B1
:1057B00005E0694690471CE0D4F8B402826892B3D1
:1057C000207CF6E7D4F8B402C268F8E7D4F8B40253
:1057D0000269F4E7D4F8B4024269F0E7D4F8B402FD
:1057E0008269ECE7207CF0B9D4F8B802416B6846D6
:1057F0008847014609E0207CA8B9D4F8B802016BBB
:1058000068468847014607204870EA888AB1BDF893
:10581000000040B1824200D90246ADF80020204687
:10582000FFF70BFFF8BDFFE729462046FFF7E0FE34
:10583000F8E72046FFF70EFFF4E778B50E464288FA
:105840000178002504468A4212D9ADF800100AE01A
:10585000694600F00FF84178052904D181780546A2
:10586000B14205D000256188BDF800209142EFD8F3
:10587000284678BD0A8803781A440A8001780844CB
:10588000704770B5002300281ED00025044602E0B2
:105890006D1CEDB2641C2678002EF9D1022404EBB5
:1058A000450414801278CA545B1C0322CA54002495
:1058B0005B1C06E0CA545B1CDAB28C54521CD3B297
:1058C000401C0278002AF5D170BD01004FF00000A5
:1058D00004D0012901D0022901D003207047012002
:1058E000704778B10023C0F8B832C0F8C432C0F8AD
:1058F000D03209B1C0F8B412012180F89C120270B4
:1059000000F0CCB80320704710B5D0F8C802FBF700
:105910007CFFBDE81040FFF7D8BF10B5D0F8C80233
:10592000FBF74DFFBDE81040FFF7CFBF2DE9F04179
:1059300017460446002521B194F89C02032842D062
:105940004CE0D4F8941204F11400022935D1D0E9C6
:1059500002639E4206D9F21A826039462046FFF75A
:105960003FFE0FE0B34214D14068984211D3D4F8FF
:10597000981288420DD2002211462046FFF730FED1
:10598000C4F8985200231A461946204600F0FAF847
:1059900013E094F89C02032808D1D4F8B802C16837
:1059A00021B1C4F8D452C1682046884780212046DE
:1059B00000F072F92046FFF735FE94F8A00268B1B6
:1059C00084F8A0520AE0D4F8B802426932B1C4F8AF
:1059D000D452426920469047002800D10020BDE8FB
:1059E000F08170B513460446002221B194F89C0260
:1059F000032830D03AE0D4F8941204F5AA700329B1
:105A000034D1D0E902518D420AD96A1A826008461F
:105A1000824200D3024619462046FFF7D9FD25E011
:105A200094F8AA0210F01F0003D0012802D0022827
:105A300000D0002294F89C02032808D1D4F8B802C0
:105A4000016921B1C4F8D422016920468847204663
:105A5000FFF700FE0AE0D4F8B802836933B1C4F856
:105A6000D422826920469047002800D1002070BDD2
:105A70000020704710B50024012180F89C12D0F856
:105A8000B82222B152680179904700B10324204620
:105A900010BDD0F8C802FBF7E6BE000010B50178D3
:105AA00039BB15490222C1F80805C0F8C8124FF0E9
:105AB000A0400860042048600020C1E90320C1E93B
:105AC000062008624862C86208630846FCF73AFA92
:105AD00008B1FBF777FA80210748FBF720FE402248
